:020000040800F2
:1000000000300020D117000819180008191800083E
:100010001918000819180008191800080000000035
:100020000000000000000000000000001918000897
:100030001918000800000000191800081918000815
:1000400000000000000000000000000000000000B0
:1000500000000000000000000000000000000000A0
:100060000000000000000000000000000000000090
:100070000000000000000000000000000000000080
:100080000000000000000000000000000000000070
:100090000000000000000000000000000000000060
:1000A0000000000000000000000000000000000050
:1000B0000000000000000000000000000000000040
:1000C0000000000000000000000000000000000030
:1000D0000000000000000000000000000000000020
:1000E0000000000000000000000000000000000010
:1000F0000000000000000000000000000000000000
:1001000000000000000000000000000000000000EF
:1001100000000000000000000000000000000000DF
:1001200000000000000000000000000000000000CF
:1001300000000000000000000000000000000000BF
:1001400000000000000000000000000000000000AF
:10015000000000000000000000000000000000009F
:10016000000000000000000000000000000000008F
:10017000000000000000000000000000000000007F
:08018000000000000000000077
:10018800044B05481B1A062B02D9044B03B1184728
:10019800704700BF670100206401002000000000D4
:1001A80005490648091A891001EBD171491002D096
:1001B800034B03B118477047640100206401002015
:1001C8000000000010B5064C237843B9FFF7D8FFAC
:1001D800044B13B10448AFF300800123237010BD12
:1001E80064010020000000001C18000808B5084B36
:1001F8001BB108490848AFF300800848036813B9E1
:10020800BDE80840CCE7064B002BF9D09847F7E744
:1002180000000000680100201C180008640100208C
:1002280000000000014B1868704700BF0001002063
:1002380070B50F4E0F4D761BB61018BF002405D0B1
:10024800013455F8043B9847A642F9D10A4E0B4DA4
:10025800761B01F0DFFAB61018BF002406D001346F
:1002680055F8043B9847A642F9D170BD70BD00BF50
:100278004C1800084C180008501800084C180008C2
:10028800F8B5144B1C68A36B05461BB100221D6111
:100298005A61F8BD182000F08DF801220023A063F0
:1002A800C0E9042343F20E3303800B238381052224
:1002B800034642814AF6CD3741F234264EF26D6448
:1002C8004DF6EC61002247808680C48001811D6163
:1002D8005A61F8BD00010020F8B51F4B1C68A16BDE
:1002E80091B10B691D4C48691D4A04FB03F402FBDC
:1002F8000040A3FB02230132034443F1000323F02F
:100308000040C1E90423F8BD182000F053F810A3F9
:10031800D3E900230146A0630126002743F20E35E6
:100328004AF6CD34C0E9046741F234204EF26D67D5
:100338004DF6EC660D804C8005250B248880CF8017
:1003480006480E814D818C81C1E90423F8BD00BFA8
:100358002E7F954C2DF45158000100202DF4515852
:100368002D7F954C10B5084B82B0044600221868C2
:10037800694600F00BF80028ACBF00984FF0FF303A
:1003880004B1206002B010BD0001002038B50B4652
:10039800074C0546114618460023236000F0D0F8A4
:1003A800431C00D038BD2368002BFBD02B6038BD20
:1003B80058030020024B0146186800F051B800BFEE
:1003C80000010020024B0146186800F003B800BF86
:1003D8000001002030B481B151F8043C0439002BED
:1003E800B8BFC9181D4B1A682AB18A420AD90868C9
:1003F8000C18A24225D04A60196030BC70478B4265
:1004080003D81A465368002BF9D1146815198D4280
:100418000CD007D808680C189C4218D04B6030BC28
:10042800516070470C23036030BC704709680C4466
:10043800111999421460E0D10ACB0C44536014603E
:10044800DBE7146852684A6020440860D4E71C68F7
:100458005B684B60204408605160CEE7E0020020F2
:1004680070B5CD1C25F0030508350C2D38BF0C25BB
:10047800002D06463BDBA94239D827490A6852B104
:1004880013685B1B04D436E023685B1B1AD522462D
:100498005468002CF8D149681F4C002936D02946E9
:1004A800304600F03BF8431C21D0C41C24F0030460
:1004B800A04205D0211A304600F030F8013016D09D
:1004C800256004E00B2B0DD923601C44256004F142
:1004D8000B0020F00700231DC31A02D05A42E25035
:1004E80070BD70BD94420ED063685360EFE70C2373
:1004F8003360002070BD0B2B03D8536814460B6083
:10050800E5E71446E0E713461446F8E7304600F0FE
:1005180005F86060C3E700BFE002002038B5074C6B
:10052800002305460846236001F034F9431C00D037
:1005380038BD2368002BFBD02B6038BD5803002042
:10054800024B58221A604FF0FF30704758030020C2
:10055800002070470020704738B50020FFF702FFE1
:10056800FFF78EFEFFF7B8FE0546FFF7B5FE204CF5
:1005780045EA00402060FFF7AFFE0546FFF7ACFEF6
:1005880045EA00406060FFF7A7FE0546FFF7A4FEB6
:1005980045EA0040A060FFF79FFEFFF79DFE154B60
:1005A800154884E80900154BA360A3F11D63A3F562
:1005B8008F53153BE3600122002304F1100158001A
:1005C80000F0030054F8200041F8330002F0030063
:1005D80054F8200041F8220051F83300584041F8FF
:1005E800330001330E2B02F10202E8D138BD00BFFF
:1005F80080010020AD201D7E9722152ED2289477E9
:100608000B780278534003704B784278534043701C
:100618008B78827853408370CB78C2785340C3700C
:100628000B790279534003714B79427953404371F6
:1006380082798B7953408371C279CB795340C371E6
:10064800704773B500230093019301261DF80340FA
:1006580006FA03F50021425C2A401A418A4001311A
:1006680014430829E4B2F6D10DF803400133082BEE
:10067800ECD100231DF80320C2540133082BF9D113
:1006880002B070BD10B50446FFF7DBFF431EC21D64
:10069800054813F8011F415C19709342F9D12046AF
:1006A800BDE81040FFF7CDBF000000204278530896
:1006B80043EAC21382784370130943EA0213C278EB
:1006C8008370530943EAC2030279C370930843EA6B
:1006D800821342790371D30843EA42138279437142
:1006E800D30943EA4203C2798371930943EA820337
:1006F800C3717047F8B543780278324D1B0443EA5A
:100708000263C2785340827843EA0223C5F88030F6
:10071800437902791B0443EA0263C2795340827920
:1007280043EA0223C5F884300446FFF715FF00F0BA
:10073800D9F905F1100105F18000FFF761FF0026E6
:1007480010352148214FFFF79DFF08361E48FFF757
:10075800ADFFA9191C48FFF753FF182EF1D100F07F
:10076800C8F90026174D05F18000FFF78BFF05F14A
:100778008000FFF79BFF06F12001394405F1800056
:100788000836FFF73DFF502EECD195F887302370DF
:10079800B5F886306370D5F884301B0AA370D5F895
:1007A8008430E370D5F88030E3711A0E22711A0C88
:1007B80062711A0AA27110212246722000F086F88E
:1007C8000020F8BD800100200002002090010020D8
:1007D80008B500F0E7F800F025F900F05FF900F03F
:1007E8006DF8094A1021702000F052F8074A1021CC
:1007F8006B2000F04DF8064A0021782000F048F8F8
:1008080000F086F8FCE700BFFD0600085D0500085B
:10081800590500080120704770B5013113469C1A2C
:10082800A04232DD0D7811F8014CA5F13006F6B280
:10083800092E01D81E700DE0A5F14106052E01D83C
:10084800373D06E0A5F16106052E01D9012070BDEE
:10085800573D1D70A4F13005EEB2092E03D81C785F
:1008680044EA05140DE0A4F14105052D01D8373CF3
:1008780004E0A4F16105052DE8D8573C1D7845EA48
:1008880004141C7002310133C9E7002070BD000058
:1008980030B5094D2B680F2B0BDCBF2909D80C2468
:1008A80004FB035401332071A160E2602B60002037
:1008B80030BD012030BD00BF10020020024A0021D7
:1008C8007620FFF7E5BF00BF1D0800082DE9F041BD
:1008D80015460F4600F02CF90C4E2C46631B9F4220
:1008E8000EDDA04614F8013B1B09F05C00F020F96E
:1008F80098F8003003F00F03F05C00F019F9EDE709
:100908000A20BDE8F04100F013B900BF3418000810
:100918002DE9F041224DADF5127D00F0F1F82B687C
:1009280000242A1D0C219C420DDA01FB04F6B65C5A
:10093800864206D10C27002607FB04570DF1C8088C
:100948000CE00134EFE726D0F4E700F0D9F80A28E4
:1009580021D00D281FD006F808000136BB68B6EB79
:10096800430FF2D300F0CCF80A2801D00D2812D199
:100978000C2303FB045402AA32A9A068FFF74CFF1A
:1009880048B9E36802A8984701AA8DF80400012134
:100998007A20FFF79BFF0DF5127DBDE8F08100BFBF
:1009A8001002002070B596B0002403264FF4A0234F
:1009B8000CA801250D93109414940C9600F0D0F80F
:1009C8000F23214602A802930494059406940395E4
:1009D80000F038FB114B5A6942F400225A615B69F6
:1009E800099403F400230E4C0193019B08954FF4DE
:1009F800C04307A9204607930A9600F0C7FB2A467A
:100A080020464FF4005100F08BFC2A464FF48041F9
:100A1800204600F085FC16B070BD00BF00100240F3
:100A28000008004810B588B04FF4C0630393022350
:100A38000493012305930323154C06930723079377
:100A4800636943F400336361636903F4003301931A
:100A580003A94FF09040019B00F098FB0D480E4B06
:100A68004FF4164E80E8084000238360C36003619A
:100A780083610C234361A36943F48043A361A369A1
:100A880003F480430293029B00F096FD08B010BD6A
:100A980000100240E802002000380140104B30B539
:100AA8005A6942F400325A615B6987B003F4003333
:100AB8000093009B01234FF48054029300250323E5
:100AC80001A94FF0904004930194039500F05EFB58
:100AD8002A4621464FF0904000F022FC07B030BD76
:100AE8000010024001224FF480514FF0904000F076
:100AF80017BC00224FF480514FF0904000F010BC1A
:100B080013B5094C094841F2883301220DF1070158
:100B180000F0D5FD20B1236A43F008032362F1E712
:100B28009DF8070002B010BD00380140E80200201F
:100B380007B502A941F2883301F8010D01220348E3
:100B480000F065FD03B05DF804FB00BFE80200207B
:100B5800024B1868421C1A60704700BFD40200207C
:100B680003682DE9F743D907044603D423689A0795
:100B780074D4F4E0B6494B6803F00C03042B07D097
:100B88004B6803F00C03082B17D14B68DB0314D513
:100B98004FF4003393FAA3F2096893FAA3F3B3FA74
:100BA80083F303F01F03012202FA03F30B42DDD0A3
:100BB8006368002BDAD101203EE26368B3F5803F19
:100BC80007D00A684BB1B3F5A02F06D142F48022B2
:100BD8000A600A6842F4803205E022F480320A6032
:100BE8000A6822F480220A60CA6A22F00F00A2680A
:100BF8000243CA62CBB1FFF7ABFF4FF4003507469B
:100C0800012695FAA5F30A6895FAA5F3B3FA83F3D2
:100C180003F01F0306FA03F31342A7D1FFF798FF67
:100C2800C01B6428EDD9032006E2FFF791FF4FF4BB
:100C380000350746012695FAA5F30A6895FAA5F343
:100C4800B3FA83F303F01F0306FA03F313428DD0BC
:100C5800FFF77EFFC01B6428EDD9E4E77C494B68A9
:100C680013F00C0F07D04B6803F00C03082B22D1AC
:100C78004B68DF031FD4022393FAA3F2086893FAA0
:100C8800A3F3B3FA83F303F01F03012202FA03F379
:100C9800034202D0236993428DD10B68F82292FA5D
:100CA800A2F26069B2FA82F200FA02F223F0F803C3
:100CB80013430B6053E0226901257AB395FAA5F333
:100CC800B3FA83F303F1845303F584139B000226DC
:100CD8001D60FFF73DFF074696FAA6F35C480A68D1
:100CE80096FAA6F3B3FA83F303F01F0305FA03F3A6
:100CF800134205D1FFF72CFFC01B0228ECD992E75D
:100D08000368F82292FAA2F26169B2FA82F201FA51
:100D180002F223F0F8031343036020E095FAA5F3E9
:100D2800B3FA83F303F1845303F584139B0002267B
:100D38001A60FFF70DFF074696FAA6F30A6896FAB7
:100D4800A6F3B3FA83F303F01F0305FA03F3134280
:100D580005D0FFF7FDFEC01B0228EDD963E7236825
:100D68001E0703D423685D074AD4DEE0A069384D26
:100D7800012110B391FAA1F2364BB2FA82F2134470
:100D88009B0002261960FFF7E3FE074696FAA6F3D2
:100D980096FAA6F396FAA6F36A6A96FAA6F3B3FA4F
:100DA80083F303F01F0301FA03F31342DAD1FFF7C9
:100DB800CFFEC01B0228E9D935E791FAA1F2254BED
:100DC800B2FA82F213449B0002261860FFF7C0FEB5
:100DD800074696FAA6F396FAA6F396FAA6F36A6A6F
:100DE80096FAA6F3B3FA83F303F01F0301FA03F3A9
:100DF8001342B7D0FFF7ACFEC01B0228E9D912E7AF
:100E08001349CB69D8000AD4CB6943F08053CB612E
:100E1800CB6903F080530193019B012500E0002575
:100E28000D4E3368DA0503D5E368012B16D12BE0A4
:100E3800336843F480733360FFF78AFE07463368EC
:100E4800DB05F1D4FFF784FEC01B6428F7D9EAE676
:100E580000100240208190100070004073B90B6AA6
:100E680023F001030B620B6A23F004030B62FFF704
:100E78006FFE02268146B04601273CE0052B0B6A2F
:100E880006D143F004030B620B6A43F0010305E04B
:100E980023F001030B620B6A23F004030B62FFF7D4
:100EA80057FE02268146B046012796FAA6F396FA1F
:100EB800A6F30BB10A6A02E096FAA6F34A6A98FA10
:100EC800A8F3B3FA83F303F01F0307FA03F31342FB
:100ED80021D1FFF73DFE41F28833C9EB000098426B
:100EE800E3D9A0E6FFF734FE41F28833C9EB0000EE
:100EF80098423FF698AE96FAA6F396FAA6F383B10F
:100F08000A6A98FAA8F3B3FA83F303F01F0307FAFF
:100F180003F31342E6D145B1CB6923F08053CB618B
:100F280003E096FAA6F34A6AEBE7E2690AB90020F9
:100F380082E043494B6803F00C03082B3FF43BAEB7
:100F4800022A4FF0807353D193FAA3F3B3FA83F3D1
:100F580003F1845303F584139B0000221A60FFF702
:100F6800F7FD4FF000768046012796FAA6F334483D
:100F78000A6896FAA6F3B3FA83F303F01F0307FA95
:100F880003F313424FF0010506D0FFF7E1FDC8EB6C
:100F980000000228E9D946E64368666A226A23F413
:100FA80074133243134343604FF0807393FAA3F3EF
:100FB800B3FA83F303F1845303F584139B004FF0D2
:100FC80000741D60FFF7C4FD064694FAA4F30A688E
:100FD80094FAA4F3B3FA83F303F01F0305FA03F3B7
:100FE8001342A4D1FFF7B4FD801B0228EDD91AE6FD
:100FF80093FAA3F3B3FA83F303F1845303F5841349
:101008009B0000221A60FFF7A3FD4FF0007406460C
:10101800012594FAA4F30A6894FAA4F3B3FA83F3C3
:1010280003F01F0305FA03F3134280D0FFF790FD86
:10103800801B0228EDD9F6E503B0BDE8F08300BFB8
:10104800001002404F4AF8B5136803F007038B42BB
:1010580005460AD32868840713D54B4C636823F0E8
:10106800F002AB68134363600BE0136823F00703D7
:101078000B431360136803F007039942EAD0012079
:10108800F8BDC20706D43F4A136803F00703994224
:1010980056D35FE06A683C4C012A0ED14FF4003306
:1010A80093FAA3F0206893FAA3F3B3FA83F303F057
:1010B8001F0302FA03F3034211E0022A0CBF4FF0A8
:1010C8000073022393FAA3F0266893FAA3F3B3FA02
:1010D80083F303F01F03012000FA03F33342CED059
:1010E800636823F003031A436260FFF731FD6B68FE
:1010F800012B064641F288370BD1636803F00C03D5
:10110800042BC0D0FFF724FD801BB842F5D903207B
:10111800F8BD022B0FD1636803F00C03082BB2D083
:10112800FFF716FD801BB842F5D9F0E7FFF710FD71
:10113800801BB842EBD8636813F00C0FF6D1A2E716
:10114800136823F007030B431360136803F00703C6
:10115800994294D12868430706D50B494B6823F474
:10116800E062EB6813434B6010F0080008D0064AB1
:101178002969536823F4605343EAC103536000208C
:10118800F8BD00BF00200240001002402DE9F04FDA
:10119800DFF884910B68DFF8848185B04C460193B1
:1011A8000023019ADA4000F0B180012202FA03FA22
:1011B800019A12EA0A0600F0A7804A6822F0100E87
:1011C800BEF1020F14D14FEAD30C00EB8C0C03F0E4
:1011D800070BDCF820704FEA8B0B0F2505FA0BF58F
:1011E80027EA05050F6907FA0BF72F43CCF820709B
:1011F8004FEA430B0327056807FA0BFC6FEA0C0C50
:10120800174005EA0C0507FA0BF70EF1FF3E3D43C0
:10121800BEF1010F056010D88568CF680CEA050596
:1012280007FA0BF72F438760456825EA0A0AC2F3D5
:1012380000159D4045EA0A054560C5680CEA050C9D
:101248008D6805FA0BF545EA0C05C560D5005BD538
:10125800D8F8185045F00105C8F81850D8F81850B3
:1012680023F0030E0EF1804E05F001050EF5803EC9
:10127800039503F0030C039DDEF808504FEA8C0C2D
:101288000F2707FA0CF7B0F1904F25EA070511D0A0
:10129800204FB84210D007F58067B8420ED007F546
:1012A8008067B8420CD007F58067B84214BF05279D
:1012B800042706E0002704E0012702E0022700E0F7
:1012C800032707FA0CFC4CEA0505CEF80850D9F8B4
:1012D8000050F74312F4803F0CBF3D403543256072
:1012E800656812F4003F0CBF3D4035436560A56852
:1012F80012F4801F0CBF3D403543A560E56892029B
:1013080054BF3D403543E56001334AE705B0BDE8C9
:10131800F08F00BF000400480004014000100240A4
:101328000AB18161704781627047000030B5026977
:1013380085680168C3690C68154342692A4342EA13
:10134800030524F4164222F00C022A430A604A6874
:10135800856922F44054C26822434A608A68046A54
:1013680022F430622C4322438A605D4A91420AD1BA
:1013780002F558425B4C126B02F00302B3F5004FC2
:10138800A25C4BD07FE0584A91420ED102F5E6327A
:10139800126B02F44032B2F5803F54D035D9B2F521
:1013A800003F58D0B2F5403F36E0504A91420ED146
:1013B80002F5E432126B02F44022B2F5802F42D0DB
:1013C80023D9B2F5002F46D0B2F5402F24E0484A81
:1013D80091420ED102F5E232126B02F44012B2F5DC
:1013E800801F30D011D9B2F5001F34D0B2F5401F9C
:1013F80012E0404A91423AD102F5E032126B02F40F
:101408004002B2F5800F1ED001D8E2B12FE0B2F54C
:10141800000F20D0B2F5400F09D028E0082A29D8BB
:10142800DFE802F014140828142828281C00B3F553
:10143800004F3BD14068420802F1F47303F5904332
:10144800B3FBF0F310E0B3F5004F38D1426853080E
:1014580003F5610306E0B3F5004F35D14268530840
:1014680003F58033B3FBF2F39BB2002004E0B3F53D
:10147800004F33D10120002323F00F02C3F34203AE
:101488001343CB6030BD082A28D8DFE802F01805DE
:101498000F27182727271D004268530803F5E10383
:1014A800B3FBF2F30E4A9BB2D36015E040684208E2
:1014B80002F5740303F51053B3FBF0F30AE0426836
:1014C800530803F5E10303E04268530803F50043BA
:1014D800B3FBF2F39BB2CB60002030BD012030BDDE
:1014E800003801404418000800440040004800400B
:1014F800004C004000500040F8B5069D04461646D2
:101508001F462068C26931EA02030CBF012200228B
:10151800B2421BD16B1CF5D095B923681A6822F426
:10152800D0721A609A6822F001029A60202384F827
:10153800693084F86A30002384F868300320F8BDE5
:10154800FFF706FBC01B8542DBD2E6E70020F8BDAB
:1015580037B504460021C166FFF7FAFA23681B680D
:101568001A07054604D423681B685B071AD50DE0E3
:101578006FF07E4300930A4603464FF4001120465D
:10158800FFF7BAFF0028EED0032013E06FF07E4388
:10159800009300222B464FF480012046FFF7ACFF52
:1015A8000028F1D12023002084F8693084F86800ED
:1015B80084F86A3003B030BD10B5044628B390F8FB
:1015C800693003F0FF020BB980F8682022682423F1
:1015D80084F86930136823F0010313602046FFF78D
:1015E800A5FE012811D023685A6822F490425A6057
:1015F8009A6822F02A029A601A6842F0010220468C
:101608001A60BDE81040FFF7A3BF012010BDF7B571
:101618001F4690F86930202B0D46044611464BD1E1
:10162800002D47D0002A45D090F86830012B43D0D0
:10163800012380F868300023C366212380F86930CD
:10164800FFF786FA0646A4F85010A4F85210B4F82A
:10165800522092B202B3B4F852300097013B9BB2C9
:10166800A4F852300022334680212046FFF744FF79
:1016780008B1032021E0A3682268B3F5805F07D191
:1016880023692BB935F8023BC3F308031385DEE75A
:101698002B7813850135DAE7009733464021204639
:1016A800FFF72AFF0028E4D1202384F8693084F862
:1016B800680002E0012000E0022003B0F0BD2DE93F
:1016C800F341984690F86A30202B0D46044611469F
:1016D8005AD1002D56D0002A54D090F86830012BEA
:1016E80052D0012380F8683003684FF0FF321A6245
:1016F8000023C366222380F86A30FFF729FAA3681B
:10170800A4F85810B3F5805F0746A4F85A1006D11C
:10171800236913B940F2FF1306E0FF2304E02BB955
:101728002369002BF9D07F23A4F85C30B4F85C60FF
:10173800B4F85A0080B2F8B1B4F85A30CDF8008045
:10174800013B9BB2A4F85A3000223B462021204698
:10175800FFF7D2FED0B9A368B3F5805F236806D13E
:10176800226922B99B8C334025F8023BE0E79B8C29
:1017780033402B700135DBE7202384F86A3084F886
:10178800680004E0012002E0022000E0032002B02B
:10179800BDE8F08108B50A4B1A680AB9094A1A6007
:1017A8001B686A461844904206D9FEF73BFD0C2395
:1017B80003604FF0FF3008BD014A1060184608BDAD
:1017C800DC02002060030020002103E00B4B5B5883
:1017D800435004310A480B4B42189A42F6D30A4A3E
:1017E80002E0002313600432084B9A42F9D3AFF3A6
:1017F8000080FEF71DFDFEF7EBFFFEE7541800081A
:101808000000002064010020640100205C03002027
:10181800FEE70000F8B500BFF8BC08BC9E4670475C
:0C182800F8B500BFF8BC08BC9E46704735
:101834003031323334353637383941424344454602
:0818440001040802430000004A
:04184C00F50100089A
:04185000CD010008BE
:101854005EF9FC003F85BA5B1837B2C671C3749D4C
:10186400A7940DE1CA68532E4962EB97A40E2DD0BC
:101874001625AC4863D1EA8FF74045B19E341BF27C
:10188400B986037FD87ADD3CE0CB522615AF8C694C
:10189400C275701C3399B6C7043BBE5AFD5FF8810C
:1018A40093A0294D66D4EF0AE5CE57A3902A096C7C
:1018B400221188E4CF6D56AB7BDCD9BD8238077E1C
:1018C400B59A1FF344F641304C67EE12218BA8D52C
:1018D400556EE70B2892A1CC2B0891EDD6644FA24C
:1018E400BC8306FA5DFF583972C5C0B49B311E77BC
:1018F400013EBBDF78DA7D84506BE28EAD1724C9DC
:10190400AE8D14E8D3614A2747F0F519369CB342EB
:101914001D32B743F446F198ECD74EAA89231065DB
:101924008AA920546FCDE613DB7C79053A80BFDEAB
:10193400E9D24B2F0CA695600F2CA5516AC8E396EB
:10194400B09F1A76C173C435FE595CB8873D02FB5B
:10195400040100200000000000000000000000005E
:101964000000000000000000000000000000000073
:1019740000000000481800080000000000000000FB
:101984000000000000000000000000000000000053
:101994000000000000000000000000000000000043
:1019A4000000000000000000000000000000000033
:0419B400000000002F
:04000005080017D107
:00000001FF
