:020000040800F2
:1000000000300020D117000819180008191800083E
:100010001918000819180008191800080000000035
:100020000000000000000000000000001918000897
:100030001918000800000000191800081918000815
:1000400000000000000000000000000000000000B0
:1000500000000000000000000000000000000000A0
:100060000000000000000000000000000000000090
:100070000000000000000000000000000000000080
:100080000000000000000000000000000000000070
:100090000000000000000000000000000000000060
:1000A0000000000000000000000000000000000050
:1000B0000000000000000000000000000000000040
:1000C0000000000000000000000000000000000030
:1000D0000000000000000000000000000000000020
:1000E0000000000000000000000000000000000010
:1000F0000000000000000000000000000000000000
:1001000000000000000000000000000000000000EF
:1001100000000000000000000000000000000000DF
:1001200000000000000000000000000000000000CF
:1001300000000000000000000000000000000000BF
:1001400000000000000000000000000000000000AF
:10015000000000000000000000000000000000009F
:10016000000000000000000000000000000000008F
:10017000000000000000000000000000000000007F
:08018000000000000000000077
:10018800044B05481B1A062B02D9044B03B1184728
:10019800704700BF2B00002028000020000000004E
:1001A80005490648091A891001EBD171491002D096
:1001B800034B03B11847704728000020280000208F
:1001C8000000000010B5064C237843B9FFF7D8FFAC
:1001D800044B13B10448AFF300800123237010BD12
:1001E80028000020000000001C18000808B5084B73
:1001F8001BB108490848AFF300800848036813B9E1
:10020800BDE80840CCE7064B002BF9D09847F7E744
:10021800000000002C0000201C1800082800002006
:100228000000000070B50F4E0F4D761BB61018BFBA
:10023800002405D0013455F8043B9847A642F9D16B
:100248000A4E0B4D761B01F0E5FAB61018BF0024D4
:1002580006D0013455F8043B9847A642F9D170BD41
:1002680070BD00BF48190008481900084C1900085B
:100278004819000870B4840746D0541E002A41D09B
:10028800CDB2034602E0621EE4B3144603F8015BF4
:100298009A07F8D1032C2ED9CDB245EA05250F2CA3
:1002A80045EA054519D903F110022646103E0F2EDE
:1002B80042F8105C42F80C5C42F8085C42F8045CB6
:1002C80002F11002F2D8A4F1100222F00F0204F099
:1002D8000F041032032C13440DD91E462246043A4B
:1002E800032A46F8045BFAD8221F22F003020432DC
:1002F800134404F003042CB1C9B21C4403F8011BD5
:10030800A342FBD170BC704714460346C2E700BF46
:100318000020704700207047437802781B0443EAA6
:100328000263C2788078134343EA002070470B0EBB
:1003380003700B0C43700B0A8370C17070470B7805
:100348000278534003704B784278534043708B785F
:10035800827853408370CB78C2785340C3700B794E
:100368000279534003714B794279534043718B7939
:10037800827953408371CB79C2795340C371027A31
:100388000B7A53400372427A4B7A53404372827A13
:100398008B7A53408372CB7AC27A5340C3720B7BF9
:1003A800027B534003734B7B427B53404373827BF6
:1003B8008B7B53408373C27BCB7B5340C3737047A3
:1003C800184B02789A5C027042789A5C4270827884
:1003D8009A5C8270C2789A5CC27002799A5C0271E7
:1003E80042799A5C427182799A5C8271C2799A5C8C
:1003F800C271027A9A5C0272427A9A5C4272827A7A
:100408009A5C8272C27A9A5CC272027B9A5C0273AC
:10041800427B9A5C4273827B9A5C8273C27B9B5C50
:10042800C373704734180008427943784270427A9F
:100438004271427B4272827A437383788270827BF4
:10044800837283798271C27A8373C37BC273C279E0
:10045800C272C278C271C37070472DE9F04F89B07B
:1004680000F1100304460DF11307039394F800906C
:10047800A678E5784FFA89F84FEA490253B2B8F1FD
:10048800000F0193ACBF00231B23009363784FFA3E
:1004980086FA5AB24FFA85FE002A82EA0A020292C6
:1004A80082EA0E01019A4FEA430C4FFA8CFC81EA6A
:1004B8000201009A8CEA0101ACBF4FF0000B4FF02B
:1004C8001B0B51408BEA010107F8031C89EA03035F
:1004D80088EA0A018EEA010176008EEA03038CEAB3
:1004E800010176B25BB271405E40029B88EA03026A
:1004F800019BBAF1000F4FEA4505ACBF4FF0000A67
:100508004FF01B0A6DB282EA03028BEA0101009BDD
:100518008AEA0101B4BF4FF01B0C4FF0000C6E408B
:10052800BEF1000F82EA050207F8021C8CEA060CED
:10053800ACBF00211B215A4081EA020381EA0C0C5E
:1005480007F801CC07F8043B039B0434A3428DD180
:100558009DF8103003709DF8113043709DF81230EB
:1005680083709DF81330C3709DF8143003719DF8A3
:10057800153043719DF8163083719DF81730C3719B
:100588009DF8183003729DF8193043729DF81A309F
:1005980083729DF81B30C3729DF81C3003739DF85D
:1005A8001D3043739DF81E3083739DF81F30C3734D
:1005B80009B0BDE8F08FF0B5202585B093FBF5F5BF
:1005C8000F4616460023C25C0DF803200133102B9A
:1005D800F9D139466846FFF7B2FE00240535AC422A
:1005E800684604F101040DDAFFF7EAFE6846FFF7F2
:1005F8001BFF6846FFF731FF07EB04116846FFF75A
:100608009EFEECE7FFF7DCFE6846FFF70DFF07EB01
:1006180004116846FFF793FE00231DF80320F254E7
:100628000133102BF9D105B0F0BD38B500220546CD
:100638000C46A958A018FFF77AFE0432B02AF8D160
:1006480038BD0000F0B5ADB00446FFF765FE009078
:10065800201DFFF761FE019004F10800FFF75CFE22
:10066800029004F10C00FFF757FE1B4FDFF86CE017
:10067800039004AB002653F804CC53F8102C5EF812
:1006880026004FEA3C655040EAB20136BC5C2A0EAF
:100698006040BA5C80EA0260C5F30742C5F30725EB
:1006A800BA5C80EA02407A5D80EA022253F80C0CB8
:1006B8001A60424053F8080C5A6042409A600A2E69
:1006C8008CEA0202DA6003F11003D4D16846FFF71E
:1006D800ACFF2DB0F0BD00BF3418000800000020AA
:1006E80030B51025C5B004462A4600216846FFF7F4
:1006F800C1FDF022002108A8FFF7BCFD2A46002111
:100708000DEB0500FFF7B6FD23788DF81030637800
:100718008DF81130A3788DF81230E3788DF8133006
:1007280023798DF8143063798DF81530A3798DF815
:100738001630E3798DF81730237A8DF81830637AFC
:100748008DF81930A37A8DF81A30E37A8DF81B30BA
:10075800237B8DF81C30637B8DF81D30A37B8DF8CF
:100768001E30E37B8DF81F3000F0D6F908A90DEB99
:100778000500FFF767FF6A4608A920468023FFF7B0
:100788001AFF00F0D0F99DF8003023709DF8013071
:1007980063709DF80230A3709DF80330E3709DF8F4
:1007A800043023719DF8053063719DF80630A371FC
:1007B8009DF80730E3719DF8083023729DF80930E1
:1007C80063729DF80A30A3729DF80B30E3729DF8AE
:1007D8000C3023739DF80D3063739DF80E30A373AE
:1007E8009DF80F30E3730DEB05022946722000F0E7
:1007F80087F822462946722000F082F8002045B08A
:1008080030BD000008B500F0E7F800F025F900F069
:100818005FF900F06DF8094A1021702000F052F8D5
:10082800074A10216B2000F04DF8064A0021782075
:1008380000F048F800F086F8FCE700BFE906000879
:100848001D030008190300080120704770B5013125
:1008580013469C1AA04232DD0D7811F8014CA5F11F
:100868003006F6B2092E01D81E700DE0A5F141063A
:10087800052E01D8373D06E0A5F16106052E01D900
:10088800012070BD573D1D70A4F13005EEB2092E50
:1008980003D81C7844EA05140DE0A4F14105052DA0
:1008A80001D8373C04E0A4F16105052DE8D8573C90
:1008B8001D7845EA04141C7002310133C9E7002091
:1008C80070BD000030B5094D2B680F2B0BDCBF291C
:1008D80009D80C2404FB035401332071A160E260A1
:1008E8002B60002030BD012030BD00BF4400002037
:1008F800024A00217620FFF7E5BF00BF5108000833
:100908002DE9F04115460F4600F02CF90C4E2C4607
:10091800631B9F420EDDA04614F8013B1B09F05CE7
:1009280000F020F998F8003003F00F03F05C00F0B5
:1009380019F9EDE70A20BDE8F04100F013B900BF4E
:10094800341900082DE9F041224DADF5127D00F073
:10095800F1F82B6800242A1D0C219C420DDA01FBBA
:1009680004F6B65C864206D10C27002607FB04571E
:100978000DF1C8080CE00134EFE726D0F4E700F0E9
:10098800D9F80A2821D00D281FD006F8080001360A
:10099800BB68B6EB430FF2D300F0CCF80A2801D0BD
:1009A8000D2812D10C2303FB045402AA32A9A06813
:1009B800FFF74CFF48B9E36802A8984701AA8DF8E9
:1009C800040001217A20FFF79BFF0DF5127DBDE899
:1009D800F08100BF4400002070B596B000240326C3
:1009E8004FF4A0230CA801250D93109414940C9691
:1009F80000F0D0F80F23214602A80293049405942E
:100A08000694039500F038FB114B5A6942F4002212
:100A18005A615B69099403F400230E4C0193019B0E
:100A280008954FF4C04307A9204607930A9600F09B
:100A3800C7FB2A4620464FF4005100F08BFC2A469B
:100A48004FF48041204600F085FC16B070BD00BF11
:100A5800001002400008004810B588B04FF4C06389
:100A6800039302230493012305930323154C069350
:100A780007230793636943F400336361636903F4ED
:100A88000033019303A94FF09040019B00F098FBBD
:100A98000D480E4B4FF4164E80E808400023836043
:100AA800C360036183610C234361A36943F48043FA
:100AB800A361A36903F480430293029B00F096FDAF
:100AC80008B010BD0010024010010020003801409D
:100AD800104B30B55A6942F400325A615B6987B0ED
:100AE80003F400330093009B01234FF480540293D6
:100AF8000025032301A94FF0904004930194039526
:100B080000F05EFB2A4621464FF0904000F022FCA0
:100B180007B030BD0010024001224FF480514FF061
:100B2800904000F017BC00224FF480514FF09040E5
:100B380000F010BC13B5094C094841F28833012272
:100B48000DF1070100F0D5FD20B1236A43F0080339
:100B58002362F1E79DF8070002B010BD003801409C
:100B68001001002007B502A941F2883301F8010DF0
:100B78000122034800F065FD03B05DF804FB00BFE7
:100B880010010020024B1868421C1A60704700BF11
:100B98000801002003682DE9F743D907044603D468
:100BA80023689A0774D4F4E0B6494B6803F00C0341
:100BB800042B07D04B6803F00C03082B17D14B68A4
:100BC800DB0314D54FF4003393FAA3F2096893FAC0
:100BD800A3F3B3FA83F303F01F03012202FA03F32A
:100BE8000B42DDD06368002BDAD101203EE2636856
:100BF800B3F5803F07D00A684BB1B3F5A02F06D1F3
:100C080042F480220A600A6842F4803205E022F445
:100C180080320A600A6822F480220A60CA6A22F0D6
:100C28000F00A2680243CA62CBB1FFF7ABFF4FF4D3
:100C380000350746012695FAA5F30A6895FAA5F343
:100C4800B3FA83F303F01F0306FA03F31342A7D1A1
:100C5800FFF798FFC01B6428EDD9032006E2FFF7D1
:100C680091FF4FF400350746012695FAA5F30A6867
:100C780095FAA5F3B3FA83F303F01F0306FA03F317
:100C880013428DD0FFF77EFFC01B6428EDD9E4E73F
:100C98007C494B6813F00C0F07D04B6803F00C032A
:100CA800082B22D14B68DF031FD4022393FAA3F247
:100CB800086893FAA3F3B3FA83F303F01F0301223E
:100CC80002FA03F3034202D0236993428DD10B68E1
:100CD800F82292FAA2F26069B2FA82F200FA02F2FB
:100CE80023F0F80313430B6053E0226901257AB31C
:100CF80095FAA5F3B3FA83F303F1845303F5841348
:100D08009B0002261D60FFF73DFF074696FAA6F3F3
:100D18005C480A6896FAA6F3B3FA83F303F01F0354
:100D280005FA03F3134205D1FFF72CFFC01B022875
:100D3800ECD992E70368F82292FAA2F26169B2FA52
:100D480082F201FA02F223F0F8031343036020E071
:100D580095FAA5F3B3FA83F303F1845303F58413E7
:100D68009B0002261A60FFF70DFF074696FAA6F3C6
:100D78000A6896FAA6F3B3FA83F303F01F0305FA99
:100D880003F3134205D0FFF7FDFEC01B0228EDD97F
:100D980063E723681E0703D423685D074AD4DEE0AF
:100DA800A069384D012110B391FAA1F2364BB2FA7D
:100DB80082F213449B0002261960FFF7E3FE074600
:100DC80096FAA6F396FAA6F396FAA6F36A6A96FA3C
:100DD800A6F3B3FA83F303F01F0301FA03F31342F4
:100DE800DAD1FFF7CFFEC01B0228E9D935E791FA1F
:100DF800A1F2254BB2FA82F213449B000226186036
:100E0800FFF7C0FE074696FAA6F396FAA6F396FAF7
:100E1800A6F36A6A96FAA6F3B3FA83F303F01F03FC
:100E280001FA03F31342B7D0FFF7ACFEC01B022848
:100E3800E9D912E71349CB69D8000AD4CB6943F042
:100E48008053CB61CB6903F080530193019B01254B
:100E580000E000250D4E3368DA0503D5E368012B61
:100E680016D12BE0336843F480733360FFF78AFEB2
:100E780007463368DB05F1D4FFF784FEC01B6428FE
:100E8800F7D9EAE600100240208190100070004077
:100E980073B90B6A23F001030B620B6A23F0040396
:100EA8000B62FFF76FFE02268146B04601273CE041
:100EB800052B0B6A06D143F004030B620B6A43F05F
:100EC800010305E023F001030B620B6A23F004031E
:100ED8000B62FFF757FE02268146B046012796FAB5
:100EE800A6F396FAA6F30BB10A6A02E096FAA6F3FD
:100EF8004A6A98FAA8F3B3FA83F303F01F0307FAD0
:100F080003F3134221D1FFF73DFE41F28833C9EBC9
:100F180000009842E3D9A0E6FFF734FE41F2883397
:100F2800C9EB000098423FF698AE96FAA6F396FAF7
:100F3800A6F383B10A6A98FAA8F3B3FA83F303F025
:100F48001F0307FA03F31342E6D145B1CB6923F037
:100F58008053CB6103E096FAA6F34A6AEBE7E269AD
:100F68000AB9002082E043494B6803F00C03082BC0
:100F78003FF43BAE022A4FF0807353D193FAA3F3A8
:100F8800B3FA83F303F1845303F584139B0000221F
:100F98001A60FFF7F7FD4FF000768046012796FAB2
:100FA800A6F334480A6896FAA6F3B3FA83F303F073
:100FB8001F0307FA03F313424FF0010506D0FFF7AA
:100FC800E1FDC8EB00000228E9D946E64368666AF5
:100FD800226A23F474133243134343604FF080733F
:100FE80093FAA3F3B3FA83F303F1845303F5841359
:100FF8009B004FF000741D60FFF7C4FD064694FA8D
:10100800A4F30A6894FAA4F3B3FA83F303F01F0372
:1010180005FA03F31342A4D1FFF7B4FD801B02289D
:10102800EDD91AE693FAA3F3B3FA83F303F18453E1
:1010380003F584139B0000221A60FFF7A3FD4FF00D
:1010480000740646012594FAA4F30A6894FAA4F3F6
:10105800B3FA83F303F01F0305FA03F3134280D0B6
:10106800FFF790FD801B0228EDD9F6E503B0BDE837
:10107800F08300BF001002404F4AF8B5136803F030
:1010880007038B4205460AD32868840713D54B4CBF
:10109800636823F0F002AB68134363600BE01368E6
:1010A80023F007030B431360136803F00703994207
:1010B800EAD00120F8BDC20706D43F4A136803F0FE
:1010C8000703994256D35FE06A683C4C012A0ED167
:1010D8004FF4003393FAA3F0206893FAA3F3B3FA1A
:1010E80083F303F01F0302FA03F3034211E0022A19
:1010F8000CBF4FF00073022393FAA3F0266893FA0B
:10110800A3F3B3FA83F303F01F03012000FA03F3F8
:101118003342CED0636823F003031A436260FFF7BB
:1011280031FD6B68012B064641F288370BD16368A5
:1011380003F00C03042BC0D0FFF724FD801BB8423A
:10114800F5D90320F8BD022B0FD1636803F00C0317
:10115800082BB2D0FFF716FD801BB842F5D9F0E78F
:10116800FFF710FD801BB842EBD8636813F00C0F33
:10117800F6D1A2E7136823F007030B431360136843
:1011880003F00703994294D12868430706D50B4911
:101198004B6823F4E062EB6813434B6010F00800DF
:1011A80008D0064A2969536823F4605343EAC10307
:1011B80053600020F8BD00BF00200240001002402C
:1011C8002DE9F04FDFF884910B68DFF8848185B052
:1011D8004C4601930023019ADA4000F0B1800122C5
:1011E80002FA03FA019A12EA0A0600F0A7804A688E
:1011F80022F0100EBEF1020F14D14FEAD30C00EB0F
:101208008C0C03F0070BDCF820704FEA8B0B0F25D2
:1012180005FA0BF527EA05050F6907FA0BF72F43BF
:10122800CCF820704FEA430B0327056807FA0BFC3C
:101238006FEA0C0C174005EA0C0507FA0BF70EF1DC
:10124800FF3E3D43BEF1010F056010D88568CF68A9
:101258000CEA050507FA0BF72F438760456825EA6E
:101268000A0AC2F300159D4045EA0A054560C568AB
:101278000CEA050C8D6805FA0BF545EA0C05C56006
:10128800D5005BD5D8F8185045F00105C8F81850B6
:10129800D8F8185023F0030E0EF1804E05F0010522
:1012A8000EF5803E039503F0030C039DDEF808500D
:1012B8004FEA8C0C0F2707FA0CF7B0F1904F25EA8C
:1012C800070511D0204FB84210D007F58067B84203
:1012D8000ED007F58067B8420CD007F58067B84292
:1012E80014BF0527042706E0002704E0012702E0D1
:1012F800022700E0032707FA0CFC4CEA0505CEF8A4
:101308000850D9F80050F74312F4803F0CBF3D4015
:1013180035432560656812F4003F0CBF3D403543F6
:101328006560A56812F4801F0CBF3D403543A56079
:10133800E568920254BF3D403543E56001334AE712
:1013480005B0BDE8F08F00BF00040048000401406C
:10135800001002400AB18161704781627047000045
:1013680030B5026985680168C3690C68154342692C
:101378002A4342EA030524F4164222F00C022A43C7
:101388000A604A68856922F44054C26822434A6068
:101398008A68046A22F430622C4322438A605D4AD8
:1013A80091420AD102F558425B4C126B02F00302DB
:1013B800B3F5004FA25C4BD07FE0584A91420ED162
:1013C80002F5E632126B02F44032B2F5803F54D097
:1013D80035D9B2F5003F58D0B2F5403F36E0504A13
:1013E80091420ED102F5E432126B02F44022B2F5BA
:1013F800802F42D023D9B2F5002F46D0B2F5402F26
:1014080024E0484A91420ED102F5E232126B02F40E
:101418004012B2F5801F30D011D9B2F5001F34D078
:10142800B2F5401F12E0404A91423AD102F5E0324B
:10143800126B02F44002B2F5800F1ED001D8E2B15F
:101448002FE0B2F5000F20D0B2F5400F09D028E008
:10145800082A29D8DFE802F01414082814282828B4
:101468001C00B3F5004F3BD14068420802F1F47309
:1014780003F59043B3FBF0F310E0B3F5004F38D118
:101488004268530803F5610306E0B3F5004F35D110
:101498004268530803F58033B3FBF2F39BB2002094
:1014A80004E0B3F5004F33D10120002323F00F02ED
:1014B800C3F342031343CB6030BD082A28D8DFE8C2
:1014C80002F018050F27182727271D004268530820
:1014D80003F5E103B3FBF2F30E4A9BB2D36015E0C8
:1014E8004068420802F5740303F51053B3FBF0F3A8
:1014F8000AE04268530803F5E10303E04268530831
:1015080003F50043B3FBF2F39BB2CB60002030BD80
:10151800012030BD00380140441900080044004053
:1015280000480040004C004000500040F8B5069DBF
:10153800044616461F462068C26931EA02030CBFFA
:1015480001220022B2421BD16B1CF5D095B9236849
:101558001A6822F4D0721A609A6822F001029A601E
:10156800202384F8693084F86A30002384F86830CE
:101578000320F8BDFFF706FBC01B8542DBD2E6E778
:101588000020F8BD37B504460021C166FFF7FAFA16
:1015980023681B681A07054604D423681B685B0781
:1015A8001AD50DE06FF07E4300930A4603464FF4C8
:1015B80000112046FFF7BAFF0028EED0032013E001
:1015C8006FF07E43009300222B464FF480012046A3
:1015D800FFF7ACFF0028F1D12023002084F8693000
:1015E80084F8680084F86A3003B030BD10B504464A
:1015F80028B390F8693003F0FF020BB980F868202F
:101608002268242384F86930136823F001031360E7
:101618002046FFF7A5FE012811D023685A6822F456
:1016280090425A609A6822F02A029A601A6842F038
:10163800010220461A60BDE81040FFF7A3BF012051
:1016480010BDF7B51F4690F86930202B0D460446AB
:1016580011464BD1002D47D0002A45D090F868306C
:10166800012B43D0012380F868300023C36621236F
:1016780080F86930FFF786FA0646A4F85010A4F8F7
:101688005210B4F8522092B202B3B4F85230009714
:10169800013B9BB2A4F852300022334680212046F9
:1016A800FFF744FF08B1032021E0A3682268B3F5DF
:1016B800805F07D123692BB935F8023BC3F30803D0
:1016C8001385DEE72B7813850135DAE70097334673
:1016D80040212046FFF72AFF0028E4D1202384F880
:1016E800693084F8680002E0012000E0022003B0BD
:1016F800F0BD2DE9F341984690F86A30202B0D464D
:10170800044611465AD1002D56D0002A54D090F8DC
:101718006830012B52D0012380F8683003684FF0FD
:10172800FF321A620023C366222380F86A30FFF76B
:1017380029FAA368A4F85810B3F5805F0746A4F8FF
:101748005A1006D1236913B940F2FF1306E0FF23AC
:1017580004E02BB92369002BF9D07F23A4F85C306F
:10176800B4F85C60B4F85A0080B2F8B1B4F85A30F2
:10177800CDF80080013B9BB2A4F85A3000223B46CA
:1017880020212046FFF7D2FED0B9A368B3F5805FC9
:10179800236806D1226922B99B8C334025F8023B85
:1017A800E0E79B8C33402B700135DBE7202384F87E
:1017B8006A3084F8680004E0012002E0022000E0BA
:1017C800032002B0BDE8F081002103E00B4B5B5819
:1017D800435004310A480B4B42189A42F6D30A4A3E
:1017E80002E0002313600432084B9A42F9D3AFF3A6
:1017F8000080FEF717FDFFF705F8FEE7501900080F
:10180800000000202800002028000020800100207F
:10181800FEE70000F8B500BFF8BC08BC9E4670475C
:0C182800F8B500BFF8BC08BC9E46704735
:10183400637C777BF26B6FC53001672BFED7AB7689
:10184400CA82C97DFA5947F0ADD4A2AF9CA472C034
:10185400B7FD9326363FF7CC34A5E5F171D83115A1
:1018640004C723C31896059A071280E2EB27B275C2
:1018740009832C1A1B6E5AA0523BD6B329E32F843A
:1018840053D100ED20FCB15B6ACBBE394A4C58CF32
:10189400D0EFAAFB434D338545F9027F503C9FA806
:1018A40051A3408F929D38F5BCB6DA2110FFF3D2D4
:1018B400CD0C13EC5F974417C4A77E3D645D197388
:1018C40060814FDC222A908846EEB814DE5E0BDB82
:1018D400E0323A0A4906245CC2D3AC629195E479B9
:1018E400E7C8376D8DD54EA96C56F4EA657AAE0813
:1018F400BA78252E1CA6B4C6E8DD741F4BBD8B8AAE
:10190400703EB5664803F60E613557B986C11D9E13
:10191400E1F8981169D98E949B1E87E9CE5528DF8A
:101924008CA1890DBFE6426841992D0FB054BB16B6
:101934003031323334353637383941424344454601
:041944000104080290
:04194800F50100089D
:04194C00CD010008C1
:101950000000000100000002000000040000000878
:101960000000001000000020000000400000008087
:081970000000001B000000361E
:04000005080017D107
:00000001FF
